S00C0000534550342E73726563FC
S113000005C2000024C2000022C2000020C2000079
S11300101EC200001CC200001AC2000018C2000068
S113002016C2000014C2000012C2000010C2000078
S113003045C400000CC200000AC2000008C200004F
S113004006C2000004C2000002C2000000C2000098
S1130050FEC10000FCC10000FAC10000F8C10000AC
S1130060F6C100000C942D1E0C947F1EF0C10000FC
S1130070EEC10000ECC10000EAC10000E8C10000CC
S1130080E6C10000E4C10000E2C10000E0C10000DC
S11300900C94C31E0C94151FDAC100000C94AD21FE
S11300A0D6C10000D4C10000D2C10000D0C10000FC
S11300B0CEC10000CCC10000CAC10000C8C100000C
S11300C0C6C10000C4C10000C2C100000C94591F85
S11300D00C94AB1FBCC100000C94EF1F0C94412086
S11300E0B6C10000950195019501C401CC01DB0165
S11300F095019501C401CC01CF213F223F223F222B
S11301003F223F223F223F22CF213F223F223F2254
S11301103F223F223F223F22D1213F223F223F2242
S11301203F223F223F223F223F223F223F223F22C3
S11301303F223F223F223F22D1213F223F223F2222
S11301403F223F223F223F223F223F223F223F22A3
S11301503F223F223F223F223B223F223F223F2297
S11301603F223F223F223F2206223F223F223F22BC
S11301703F223F223F223F223F223F223F223F2273
S11301803F223F223F223F22FA213F223F223F22A9
S11301903F223F223F223F221E220CE817E00F2E6F
S11301A0F4EBEF2EF7E0FF2EF02D80918B078823E0
S11301B011F10FB6F8940F92D8011596ED91FC91B8
S11301C01697C681D781CE010296DED18091810730
S11301D081508093810780918B07815080938B0796
S11301E00F900FBE8F89988D5CD1CE015AD180912A
S11301F08B078111DECFF7018081823008F099D21C
S11302000E947F12D2CFCF93DF9300D000D0CDB71E
S1130210DEB7CE0101964C0144244394E12CF12C29
S1130220512CC82ED92CE091E207F091E30780818C
S1130230882309F4D7C00580F681E02DA080B18021
S11302400E94DC0BC4010E9411128C01898181116E
S113025048C00A151B05B0F10E94A60CE091E20704
S1130260F091E3070580F681E02D66807780C30175
S113027002968AD1D30153968C91539782FF17C06B
S11302801C966D917C911D976A0D7B1D9501A801AB
S1130290C3010E945211882369F00E2D1F2D2E2DAB
S11302A03F2DA501652DC3010E94CA1103C08E7F95
S11302B0F301838BD3015096ED91FC915197C301C7
S11302C0199584C0452DB501601B710B8091DE0723
S11302D09091DF0761D60E94A60C811177C029D2C4
S11302E075C00E94A60C72C0898188230CF46EC06C
S11302F0AC80BD80F50182859385892B19F0C501F9
S1130300029642D1CE0106960E941112AC01E981F7
S11303100E2E000CFF0BEA30F10508F057C08827B9
S1130320EE58FF4F8F4F0C949724D50153968C9120
S11303305397816053968C9353972A813B811C96E3
S11303406D917C911D97620F731FC5010E9452111C
S11303508823E1F1D5015096ED91FC915197C501A7
S11303601995F501838982FF31C04A815B818485B7
S11303709585480F591F0E2D1F2D2E2D3F2D652DB0
S1130380C5010E94CA1122C0D50153968C9153977E
S11303908E7F53968C931AC0F50183898160838B79
S11303A06A817B8175876487640F751F9A01C50113
S11303B00E9452110BC0D50153968C9181FD03C04C
S11303C0C5016FD003C08E7FF501838B4E2D5F2D49
S11303D06C2D7D2D8091DE079091DF0798D48111DB
S11303E083CF21CF0E94DC0BC4010E9411128C0127
S11303F08981811176CFE091E007F091E107808156
S1130400442D8111452DAE2CBF2C5DCF11241FBE70
S1130410CFEFD1E2DEBFCDBF00E00CBF17E0A0E01C
S1130420B2E0E0E7F2E500E00BBF02C007900D92F6
S1130430A437B107D9F729E0A4E7B7E001C01D92BA
S1130440AB3FB207E1F70E947E150C943629D8CD54
S1130450E7E0F1E080818F6080830895E8E0F1E0D7
S11304609081907F908390818F70982B90830895D2
S1130470E8E0F1E08081807F80830895CF93DF936B
S1130480EC010E94DC0BCE010E94B924EC010E9415
S1130490A60C209711F40E948012CE01DF91CF9117
S11304A00895CF93DF93009741F0EC010E94DC0B99
S11304B0CE010E9451250E94A60CDF91CF91089590
S11304C0FC010396928381832FEF3FEF34832383D0
S11304D0968385839087878310820895FC01118613
S11304E010860895CF93DF939C01FB01DC011196E4
S11304F0CD91DC911297D383C2838C819D819583A6
S113050084838C819D81DC0113967C936E93129776
S11305107D836C8331872087F90180818F5F80839D
S1130520DF91CF910895CF93DF93EB0148815981F7
S11305304F3F2FEF520721F4FC01A781B0850DC076
S1130540DC01139601C0DF011296ED91FC91139723
S11305502081318142175307B0F71296ED91FC9137
S11305601397FB83EA83D583C483BD83AC8313963B
S1130570DC93CE93129799878887FC0120812F5FA3
S11305802083DF91CF910895CF93DF93FC01A08561
S1130590B185C281D381848195819D838C83C481FB
S11305A0D581828193819B838A8311968D919C91BD
S11305B01297E817F90731F48481958112969C9378
S11305C08E931197118610868C9181508C938C9107
S11305D0DF91CF91089531E1FC013083319722E21C
S11305E020833197A3E3A08331976083319770838D
S11305F03197108231971082319760E86083319788
S113060010823197108231971082319762E06083B3
S1130610319763E06083319764E06083319765E0EC
S11306206083319766E06083319767E06083319738
S113063068E06083319769E06083319760E16083AB
S113064031973083319732E13083319733E130830E
S1130650319734E13083319735E13083319736E196
S11306603083319737E13083319738E130833197E4
S113067039E13083319730E23083319731E230838E
S113068031972083319723E2208331974083319738
S11306905083319726E22083319727E220833197D4
S11306A028E22083319729E22083319720E32083B5
S11306B0319721E3208389970895A89590EC88E1E8
S11306C00FB6F894A895809360000FBE90936000D5
S11306D0A091D807B091D907CD91CDBFDD91DEBFF0
S11306E0FF91EF91DF91CF91BF91AF919F918F9146
S11306F07F916F915F914F913F912F911F910F9136
S1130700FF90EF90DF90CF90BF90AF909F908F902D
S11307107F906F905F904F903F902F901F900F901D
S11307200CBE0F900BBE0F900FBE0F90089581E08A
S113073008950F920FB6F8940F920BB60F920CB661
S11307400F921F9211242F923F924F925F926F92B9
S11307507F928F929F92AF92BF92CF92DF92EF924D
S1130760FF920F931F932F933F934F935F936F9336
S11307707F938F939F93AF93BF93CF93DF93EF9325
S1130780FF93A091D807B091D9070DB60D920EB67C
S11307900D920E94430DA091D807B091D907CD9135
S11307A0CDBFDD91DEBFFF91EF91DF91CF91BF917E
S11307B0AF919F918F917F916F915F914F913F91F5
S11307C02F911F910F91FF90EF90DF90CF90BF90EA
S11307D0AF909F908F907F906F905F904F903F90DD
S11307E02F901F900F900CBE0F900BBE0F900FBE5A
S11307F00F9008950F920FB6F8940F920BB60F92C4
S11308000CB60F921F9211242F923F924F925F9237
S11308106F927F928F929F92AF92BF92CF92DF920C
S1130820EF92FF920F931F932F933F934F935F93F6
S11308306F937F938F939F93AF93BF93CF93DF93E4
S1130840EF93FF93A091D807B091D9070DB60D92FD
S11308500EB60D9213BEC0D781110E94430DA09114
S1130860D807B091D907CD91CDBFDD91DEBFFF91FF
S1130870EF91DF91CF91BF91AF919F918F917F9134
S11308806F915F914F913F912F911F910F91FF9025
S1130890EF90DF90CF90BF90AF909F908F907F901C
S11308A06F905F904F903F902F901F900F900CBED1
S11308B00F900BBE0F900FBE0F9008959BDF1895FD
S11308C00FB6F8940F92FC01928D0F900FBE81E049
S11308D0911180E008950F931F93CF93DF93EC0160
S11308E0042F1A8D4C8D41110CC088819981892B5C
S11308F009F042C08C819D810E940B0F1D821C82D5
S113090042C0011117C050E08A819B810E94DE25FC
S11309102C8D8A819B81820F911D9B838A832C81DC
S11309203D818217930750F1888199819B838A8343
S113093080E029C050E08E819F810E94DE258C8D4D
S113094090E09195819591092E813F81280F391F5F
S11309503F832E83488159812417350730F42C8135
S11309603D81820F931F9F838E83023049F41123AC
S113097049F0115080E007C080E005C080E003C06A
S113098080E001C080E01F5F1A8FDF91CF911F913B
S11309900F910895FC01448D4423A9F050E0268171
S11309A03781240F351F3783268384819581281747
S11309B0390720F08081918197838683CB016681FA
S11309C077810C94DE250895EF92FF920F931F9385
S11309D0CF938C010FB6F8940F92FC01C68D1C16B0
S11309E0ACF48189811106C011C0F801818981119B
S11309F005C00CC07801F1E1EF0EF11CC7010E94A3
S1130A00FA0D81110E94820EC15079F78FEFF8011F
S1130A10868F0F900FBE0FB6F8940F92C58D1C16DB
S1130A20ACF48085811106C011C0F8018085811164
S1130A3005C00CC07801F8E0EF0EF11CC7010E945C
S1130A40FA0D81110E94820EC15079F78FEFF801DF
S1130A50858F0F900FBECF911F910F91FF90EF9054
S1130A600895CF93DF93EC010FB6F8940F92E881C9
S1130A70F9818B8D2C8D90E030E0829FA001839FC3
S1130A80500D929F500D11244E0F5F1F5D834C83B8
S1130A901A8EFB83EA830197829FA001839F500DE6
S1130AA0929F500D1124CF01840F951F9F838E8335
S1130AB08FEF8D8F8E8F61110BC08885882371F025
S1130AC0CE0108960E94FA0D882341F032DE06C05A
S1130AD0CE010896F5DCCE014196F2DC0F900FBEF4
S1130AE081E0DF91CF910895FF920F931F93CF93ED
S1130AF0DF93082F162FF42E6623B9F0869FC001CA
S1130B0011248196BBDCEC01009741F414C00B8FD7
S1130B101C8F61E0CE01A5DFF8A20DC081969983F8
S1130B208883F5CFD983C883F2CF81E290E0A6DC35
S1130B30EC01892BB9F7CE01DF91CF911F910F9171
S1130B40FF9008959F92AF92BF92CF92DF92EF925F
S1130B50FF920F931F93CF93DF9300D01F921F92A6
S1130B60CDB7DEB78C016B015D834C83A22EB12C13
S1130B70992493947C0188E0E80EF11C0FB6F89454
S1130B800F92F801928D838D981718F0F2E0AF124E
S1130B9016C04A2DB601C8019EDEF8019189992339
S1130BA041F0C80141960E94FA0D882321F0C1DD6D
S1130BB002C08111BEDD0F900FBE81E047C08C8161
S1130BC09D81892B21F40F900FBE80E03FC0B110AE
S1130BD005C0CE0101960E94420EB92C0F900FBEA3
S1130BE0EBD50FB6F8940F92F801858D8F3F09F479
S1130BF0158EF801868D8F3F09F4168E0F900FBE67
S1130C00BE016C5F7F4FCE0101960E944D0E811193
S1130C1019C00FB6F8940F92F801928D838D0F903E
S1130C200FBE98130BC06C817D81C701BAD7C80170
S1130C30CBDE8CD68111A2CF7CDDA0CFC801C4DE6F
S1130C4085D69CCFC801C0DE81D680E00F900F907E
S1130C500F900F900F90DF91CF911F910F91FF9004
S1130C60EF90DF90CF90BF90AF909F900895CF9377
S1130C70DF93482F60E081E037DFEC01009759F003
S1130C801D821C82198218821E8220E040E050E0FE
S1130C9060E070E057DFCE01DF91CF910895EF92CD
S1130CA0FF920F931F93CF93DF938A01FC01528D20
S1130CB0338D531710F02230E1F4422F7801EC0108
S1130CC01E8D09DE1F3F79F489898823A1F0CE01A6
S1130CD0419690D7882389F0E114F10481F081E0F2
S1130CE0F70180830DC0FF24F394F10EFE8E81E0A2
S1130CF007C080E005C081E003C081E001C081E05D
S1130D00DF91CF911F910F91FF90EF9008959F92E3
S1130D10AF92BF92CF92DF92EF92FF920F931F9305
S1130D20CF93DF9300D01F921F92CDB7DEB78C0113
S1130D305B015D834C83E12C992493946C0181E1E4
S1130D40C80ED11C0FB6F8940F92F801F28CFF2054
S1130D5091F0B501C8011EDEFA94F801F28E808587
S1130D60882329F0C801089645D78111E2DC0F9049
S1130D700FBE81E044C08C819D81892B21F40F90AA
S1130D800FBE80E03CC0E11004C0CE0101967AD7CA
S1130D90E92C0F900FBE10D50FB6F8940F92F801FE
S1130DA0858D8F3F09F4158EF801868D8F3F09F4E8
S1130DB0168E0F900FBEBE016C5F7F4FCE01019661
S1130DC06CD7811113C0C8017BDD882359F06C8175
S1130DD07D81C601E6D6C801F7DDB8D58111B2CF51
S1130DE0A8DCB0CFC801F0DDB1D5ACCFC801ECDDD3
S1130DF0ADD5C80165DD882309F4A4CF80E00F9048
S1130E000F900F900F900F90DF91CF911F910F9142
S1130E10FF90EF90DF90CF90BF90AF909F90089598
S1130E20BF92CF92DF92EF92FF920F931F93CF93D3
S1130E30DF9300D01F921F92CDB7DEB78C017D8364
S1130E406C83B12CD12CCC24C3947C0181E1E80EB9
S1130E50F11C0FB6F8940F92D8015A968C915A97B8
S1130E608823D9F081505A968C935A978D919C91EE
S1130E70892B29F40E949B0FF80195838483D80160
S1130E8018968C91882329F0C8010896B3D681114D
S1130E9050DC0F900FBE81E070C08C819D81892B46
S1130EA021F40F900FBE80E068C0D11004C0CE01C1
S1130EB00196E8D6DC2C0F900FBE7ED40FB6F894C2
S1130EC00F92F801858D8F3F09F4158ED8015E9637
S1130ED08C915E978F3F11F45E961C920F900FBE1B
S1130EE0BE016C5F7F4FCE010196D7D6811121C020
S1130EF0C801E6DC8823C9F0F80180819181892B3F
S1130F0049F40FB6F8940F928481958112D7B82EC4
S1130F100F900FBE6C817D81C70143D6C80154DD9B
S1130F2015D5811196CF05DC94CFC8014DDD0ED5C2
S1130F3090CFC80149DD0AD5C801C2DC882309F471
S1130F4088CFBB20C9F00FB6F8940F92F8018189BD
S1130F50882339F00688F789E02D808164E0681BD6
S1130F6001C060E0D80114968D919C91159793D798
S1130F700F900FBE80E001C080E00F900F900F90A3
S1130F800F900F90DF91CF911F910F91FF90EF90F1
S1130F90DF90CF90BF900895CF93DF93EC010FB60D
S1130FA0F8940F928D8D8F3F09F41D8E8E8D8F3F97
S1130FB009F41E8E0F900FBE8A8D811103C0CE01DD
S1130FC0419600D6CE0100DDDF91CF910895FC015A
S1130FD04481558122813381240F351F8081918181
S1130FE0B901681B790BCB016417750710F0841BDA
S1130FF0950B0895AF92BF92CF92DF92EF92FF923A
S11310000F931F93CF93DF936C015B017A01FC0173
S1131010C281D381048115810C1B1D0B401751071C
S113102008F48A01F60184859585A801B5018C0F21
S11310309D1F0E94DE250E151F0558F4A701401BB5
S1131040510BB501600F711FF601848595850E94CF
S1131050DE25CE018E0D9F1DF60124813581821778
S1131060930710F0821B930BF60193838283C701CD
S1131070DF91CF911F910F91FF90EF90DF90CF9070
S1131080BF90AF900895CF92DF92EF92FF920F93AB
S11310901F93CF93DF931F921F92CDB7DEB75A836E
S11310A0498321153105C9F06B017C01FC0186855A
S11310B080FD08C0CA012417350708F4C9019A83C2
S11310C0898311C02017310758F042E050E0BE0177
S11310D06F5F7F4FC7018EDF06C080E090E008C0DD
S11310E080E090E005C049815A81B601C70182DFE2
S11310F00F900F90DF91CF911F910F91FF90EF9080
S1131100DF90CF900895AF92BF92CF92DF92EF928B
S1131110FF920F931F93CF93DF937C015B01E9014F
S11311204217530708F4EA01209779F1F701008187
S11311301181C480D580C01AD10ACC15DD0508F40C
S11311406E01F70164857585600F711FA601C501E5
S11311500E94DE25CC16DD0658F4AE014C195D095B
S1131160F70164857585C5018C0D9D1D0E94DE25E2
S11311700C0F1D1FF701848195810817190710F0C2
S1131180081B190BF70111830083CE01DF91CF9166
S11311901F910F91FF90EF90DF90CF90BF90AF9091
S11311A00895EF92FF921F93CF93DF93EB0111E029
S11311B0413009F010E0209711F4C1E0D0E07C0147
S11311C02FEFE21AF20A419659D9009781F020E1F3
S11311D0FC0111922A95E9F79C01205F3F4FFC0125
S11311E035872487F582E482D783C6831687DF9107
S11311F0CF911F91FF90EF900895CF93DF93FC015F
S113120027850FB6F8940F9280859185892BD1F4A8
S113121082859385892BC1F48685468157816481B3
S11312207581A485B58590E1EF0119929A95E9F746
S1131230B587A48775836483578346838687278706
S113124081E003C080E001C080E00F900FBEDF9119
S1131250CF910895FC01248135818081918142815F
S11312605381820F931F0197841B950B8217930759
S113127010F0821B930B0895AF92BF92CF92DF922E
S1131280EF92FF920F931F93CF93DF93EC015B01D7
S11312906A0179018E8580FF04C08A010E5F1F4FA9
S11312A001C08A01CE01D6DF9C01A601B501CE01A1
S11312B0EADE6C01892BB1F0CE0189DE2E813F81FB
S11312C08217930778F088859985892B59F088854A
S11312D0998500E010E020E040E050E0BA013ED7FC
S11312E019861886C601DF91CF911F910F91FF9047
S11312F0EF90DF90CF90BF90AF9008956F927F9260
S11313008F929F92AF92BF92CF92DF92EF92FF9211
S11313100F931F93CF93DF931F921F92CDB7DEB726
S11313206C013B014A017901FC01868580FD03C003
S1131330A12CB12C04C06894AA24A1F8B12CE11406
S1131340F10429F10FB6F8940F92C60140DE8C0126
S1131350A816B90638F080E090E090D7D7D4F6010B
S1131360918780870F900FBEA016B106B0F000E001
S113137010E020E030E0A90160E070E0CB01EDD5A1
S1131380F60111861086C60122DE8C0103C0C60157
S11313901EDE8C01A016B106B8F5A114B104C1F08B
S11313A0F601E080F1809801A501BE016F5F7F4FD7
S11313B0C601A9DE89819A810A191B098816990632
S11313C030F4F601F182E082812C912C01C04C01B1
S11313D09801A401B301C60196DE7C01892BB1F00A
S11313E0EBD1F60182859385892B61F08285938503
S11313F000E010E020E040E050E0BA0131D6F60110
S113140013861286A3D202C0E12CF12CC7010F90DF
S11314100F90DF91CF911F910F91FF90EF90DF908C
S1131420CF90BF90AF909F908F907F906F900895D2
S1131430E091A007F091A1078081811107C08FEF8F
S11314409FEF90937807809377070895E091A00722
S1131450F091A1070580F681E02D0680F781E02D4B
S11314608281938190937807809377070895FF9200
S11314700F931F93CF93DF93EC01F62E00917F0718
S1131480109180078091D8079091D90702967CD853
S1131490CF3F8FEFD80761F4FF2051F06091D80758
S11314A07091D9076E5F7F4F82E897E01BD82DC0FB
S11314B0C00FD11FE091D807F091D907D383C2831D
S11314C0C017D10760F46091D8077091D907809153
S11314D09E0790919F076E5F7F4F25D816C060913D
S11314E0D8077091D9078091A0079091A1076E5FEA
S11314F07F4F19D88091770790917807C817D9073B
S113150020F4D0937807C0937707DF91CF911F9190
S11315100F91FF9008954F925F926F927F928F92F6
S11315209F92AF92BF92CF92DF92EF92FF920F936E
S1131530CF93DF934C016B015A012901CA010E9428
S11315403E023C01892B09F4F3C08CE290E00E9436
S11315503E02EC01892B99F0788E6F8AA50165EA29
S113156070E0C3010E94E72581E0A81AB1088F89C1
S1131570988DA80EB91EC114D10429F420C0C3014A
S11315800E945102D5C0D6018C91898F8C918823F9
S1131590A1F0AE01465E5F4FF6013196B8E0CB0E86
S11315A0D11CCF012191DA012D93AD01DC018C9185
S11315B0882319F0EC15FD05A1F718A201C0198EB6
S11315C0043008F003E00E8B0BA31CA26E01B2E002
S11315D0CB0ED11CC6010E946E02CE010C960E9455
S11315E06E02D987C88784E090E0801B91099D87AB
S11315F08C87DB8BCA8B1EA21DA21FA218A619A65C
S11316001AA61BA6A201B401C5010E94EB0299838C
S11316108883E114F10419F0F701D183C0830FB674
S1131620F8940F92809181078F5F80938107809156
S1131630D8079091D907892BD1F5D093D907C093B6
S1131640D80780918107813009F041C084EB97E08D
S11316500E9460028DEB97E00E94600286EC97E0A6
S11316600E9460028FEC97E00E9460028BEA97E090
S11316700E94600282EA97E00E94600285E997E096
S11316800E9460028CE897E00E94600282E897E082
S11316900E9460028BEA97E09093A1078093A007D1
S11316A082EA97E090939F0780939E0710C08091F1
S11316B07D0781110CC0E091D807F091D907968974
S11316C08E89891720F0D093D907C093D8078091C9
S11316D079078F5F8093790789A38E8990917E071C
S11316E0981710F480937E0790E09C01220F331F1B
S11316F0220F331F220F331F820F931FB6018C5406
S1131700984F0E9472020F900FBE80917D0788232C
S113171059F0E091D807F091D90796898E899817E6
S113172028F407D881E005C081E003C081E001C04E
S11317308FEFDF91CF910F91FF90EF90DF90CF90DB
S1131740BF90AF909F908F907F906F905F904F90DD
S11317500895EF92FF920F930F2EF5E7EF2EF7E027
S1131760FF2EF02D00E020E030E040EC50E06EE68B
S113177072E08DEC90E0CFDE8130D1F4EBD5813096
S1131780B9F4F8948FEF9FEF9093780780937707DD
S113179081E080937D071092800710927F07E0918B
S11317A0D807F091D90785A10E942E020E945D03FB
S11317B00F91FF90EF900895809174078F5F80934D
S11317C0740708950FB6F8940F9280917F07909153
S11317D080070F900FBE0895CF92DF92EF92FF9291
S11317E00F931F93CF93DF9380917407811198C057
S11317F0E0907F07F09080078FEFE81AF80AF092E4
S11318008007E0927F07E114F104B1F48091A0070E
S11318109091A10720919E0730919F073093A107D3
S11318202093A00790939F0780939E0780917A0747
S11318308F5F80937A07FCDD80917707909178071A
S1131840E816F90610F4D12C53C0D12CCC24C3943F
S1131850E091A007F091A1078081811107C08FEF6B
S11318609FEF909378078093770742C0E091A00799
S1131870F091A1070580F681E02DC681D7818A8188
S11318809B81E816F90628F49093780780937707EC
S11318902FC08E010E5F1F4FC8010E94C4028C89A5
S11318A09D89892B21F0CE010C960E94C4028E8959
S11318B090917E07981710F480937E0790E09C0126
S11318C0220F331F220F331F220F331F820F931F48
S11318D0B8018C54984F0E947202E091D807F0919D
S11318E0D9079E898689981708F4B2CFDC2CB0CF2B
S11318F0E091D807F091D907868990E0FC01EE0FBA
S1131900FF1FEE0FFF1FEE0FFF1F8E0F9F1FFC0127
S1131910EC54F84F8081823048F0DD24D39406C023
S113192080917C078F5F80937C07D12C80917B070B
S1131930882311F0DD24D3948D2DDF91CF911F9155
S11319400F91FF90EF90DF90CF900895DF92EF9288
S1131950FF920F931F93CF93DF930FB6F8940F92D8
S1131960809174078150809374078091740781116A
S11319705DC080918107811133C05BC0D70115968A
S1131980ED91FC911697C681D781CE010C960E94E9
S1131990C4028E010E5F1F4FC8010E94C4028E89CB
S11319A090917E07981710F480937E0790E09C0135
S11319B0220F331F220F331F220F331F820F931F57
S11319C0B8018C54984F0E947202E091D807F091AC
S11319D0D9079E898689981768F0D0927B070AC038
S11319E0C0E0D0E00F2EF5E9EF2EF7E0FF2EF02D4A
S11319F0DD24D394F70180818111C0CFCD2B09F070
S1131A0017DDC0917C07CC2349F0D1E0E5DE8111DC
S1131A10D0937B07C150D1F710927C0780917B074C
S1131A20882331F00E94990381E003C080E001C063
S1131A3080E00F900FBEDF91CF911F910F91FF9027
S1131A40EF90DF900895CF93DF93EC01892B39F069
S1131A50B3DE60E0CE010BDD79DF811102C00E94AC
S1131A609903DF91CF910895009721F48091D807CD
S1131A709091D9070FB6F8940F92FC0176A365A351
S1131A800F900FBE089580917407882321F081E0A0
S1131A9080937B07089510927B07E091D807F0911B
S1131AA0D90785A10E943802A091D807B091D9071F
S1131AB0E091D807F091D9072D913C918789908DB9
S1131AC08217930758F06091D8077091D9078091D5
S1131AD0D8079091D907675E7F4F1FD520917E0765
S1131AE0822F90E0FC01EE0FFF1FEE0FFF1FEE0FA1
S1131AF0FF1FE80FF91FEC54F84F3081311111C06A
S1131B002150822F90E0FC01EE0FFF1FEE0FFF1F0C
S1131B10EE0FFF1FE80FF91FEC54F84F3081332309
S1131B2079F3AC01440F551F440F551F440F551F43
S1131B30480F591FDA01AC54B84F1196ED91FC913E
S1131B4012970280F381E02D1296FC93EE93119785
S1131B504954584FE417F50729F442815381FD0194
S1131B6052834183FC01EE0FFF1FEE0FFF1FEE0FA8
S1131B70FF1F8E0F9F1FFC01EC54F84F0180F28170
S1131B80E02D868197819093D9078093D80720937D
S1131B907E07E091D807F091D90785A10C942E0215
S1131BA00895CF93DF93EB016091D8077091D90723
S1131BB0645F7F4F0E94930261E0CE0158DCDF91A5
S1131BC0CF9108950F931F93CF938B01C42F6091EE
S1131BD0D8077091D907645F7F4F0E947202CC23AB
S1131BE011F00FEF1FEF6C2FC80141DCCF911F9153
S1131BF00F9108950F931F93CF93DF93DC011596F4
S1131C00ED91FC911697C681D7818E01045F1F4F19
S1131C10C8010E94C4028091740781111CC00A503B
S1131C201109C8010E94C4028E8990917E079817F9
S1131C3010F480937E0790E09C01220F331F220F43
S1131C40331F220F331F820F931FB8018C54984FF8
S1131C500E94720205C0B80185E997E00E947202F1
S1131C60E091D807F091D9079E898689891720F4D5
S1131C7081E080937B0701C080E0DF91CF911F91C9
S1131C800F91089520917A07FC01208320917F070A
S1131C9030918007328321830895CF93DF930FB669
S1131CA0F8940F9220917F0730918007DB014D91CA
S1131CB05C914F3FBFEF5B07E9F0EC01E981FA81EA
S1131CC0A0917A07B881BA1719F02E173F07A0F42C
S1131CD02E1B3F0B2417350740F4FB01421B530B0B
S1131CE051834083CFDF80E008C0FB011182108262
S1131CF081E003C080E001C081E00F900FBEDF915E
S1131D00CF91089581E080937B0708958091D8074F
S1131D109091D907089580917D07882331F08091AF
S1131D207407882321F080E0089581E0089582E01B
S1131D3008950F931F93CF93DF93FC01892B09F42C
S1131D4064C02689A091D807B091D90756968C9182
S1131D50281708F04EC084859585992364F0A091D6
S1131D60D807B091D90756963C9184E090E0831B44
S1131D7091099587848730E0C901880F991F880FDE
S1131D80991F880F991F280F391F2C54384F8285AB
S1131D9093858217930721F58F01EF012296CE01D7
S1131DA00E94C402E091D807F091D9078689F8010E
S1131DB0868B90917E07981710F480937E0790E0AD
S1131DC09C01220F331F220F331F220F331F820F58
S1131DD0931FBE018C54984F0E94720281E016C07A
S1131DE0A091D807B091D90756968C91868B81E043
S1131DF00DC0A091D807B091D90781E023A15696D0
S1131E009C91291718F080E001C080E0DF91CF9108
S1131E101F910F9108950F931F93CF93DF93FC01AC
S1131E20892B79F184A1815084A3268993A1291750
S1131E3051F181112AC0EF018F010E5F1F4FC801BC
S1131E400E94C4028BA18E8B24E030E0281B310950
S1131E503D872C8790917E07981710F480937E0716
S1131E6090E09C01220F331F220F331F220F331FD8
S1131E70820F931FB8018C54984F0E94720281E024
S1131E8005C080E003C080E001C080E0DF91CF9115
S1131E901F910F9108950F931F93CF93DF93FC012C
S1131EA0892B09F443C093A1961708F4962F8689C9
S1131EB08917E1F124A12130C9F5968B2485358554
S1131EC0332334F024E030E0291B3109358724879B
S1131ED090E09C01220F331F220F331F220F331F68
S1131EE0820F931F8C54984F228533852817390706
S1131EF0E9F4EF018F010E5F1F4FC8010E94C40275
S1131F008E8990917E07981710F480937E0790E055
S1131F109C01220F331F220F331F220F331F820F06
S1131F20931FB8018C54984F0E947202DF91CF9195
S1131F301F910F9108958091D8079091D907892B0B
S1131F4039F0E091D807F091D90784A18F5F84A379
S1131F508091D8079091D90708954F925F926F921C
S1131F607F928F929F92AF92BF92EF92FF920F93C4
S1131F701F9349015A010FB6F8940F92E091D807C4
S1131F80F091D90723A5223021F1E091D807F091EF
S1131F90D90747A050A461A472A4DC01CB018095A9
S1131FA09095A095B09584219521A621B72187A36A
S1131FB090A7A1A7B2A7E091D807F091D90781E033
S1131FC083A7E114F10429F061E0C70150DA0E940B
S1131FD099030F900FBE0FB6F8940F9201151105D7
S1131FE069F0E091D807F091D90787A190A5A1A540
S1131FF0B2A5F80180839183A283B383E091D807CB
S1132000F091D90783A58230B1F4E091D807F0911B
S1132010D90787A190A5A1A5B2A580949094A09476
S1132020B09488229922AA22BB2287A290A6A1A6B4
S1132030B2A681E001C080E0E091D807F091D90711
S113204013A60F900FBE1F910F91FF90EF90BF90BA
S1132050AF909F908F907F906F905F904F90089576
S11320600F931F93CF93DF93FC010FB6F8940F9255
S11320700115110549F087A190A5A1A5B2A5E80114
S113208088839983AA83BB8383A592E093A7223094
S1132090B1F018F4213031F02AC02330E9F02430B3
S11320A001F125C007A110A521A532A5402B512B74
S11320B0622B732B47A350A761A772A718C047A12F
S11320C050A561A572A54F5F5F4F6F4F7F4F47A328
S11320D050A761A772A70BC047A350A761A772A717
S11320E006C0823079F147A350A761A772A7813057
S11320F059F5EF018F010E5F1F4FC8010E94C40202
S11321008E8990917E07981710F480937E0790E053
S11321109C01220F331F220F331F220F331F820F04
S1132120931FB8018C54984F0E947202E091D80713
S1132130F091D9079E898689891740F40E949903F2
S113214081E005C080E003C081E001C081E00F9020
S11321500FBEDF91CF911F910F910895EF92FF92DF
S11321600F931F93CF93DF93FC010115110549F0E1
S113217087A190A5A1A5B2A5E80188839983AA8324
S1132180BB8383A592E093A72230B1F018F42130E9
S113219031F02BC02330E9F0243001F126C007A12F
S11321A010A521A532A5402B512B622B732B47A3DD
S11321B050A761A772A719C047A150A561A572A530
S11321C04F5F5F4F6F4F7F4F47A350A761A772A721
S11321D00CC047A350A761A772A707C0823009F4B7
S11321E041C047A350A761A772A78130E9F5EF0169
S11321F08091740781111DC08F010E5F1F4FC801AC
S11322000E94C4028E8990917E07981710F48093DF
S11322107E0790E09C01220F331F220F331F220FF1
S1132220331F820F931FB8018C54984F0E9472027F
S113223007C0BF01645F7F4F85E997E00E94720287
S1132240E091D807F091D9079E898689891770F49F
S1132250E114F10419F081E0F701808381E08093B7
S11322607B0705C080E003C081E001C081E0DF910D
S1132270CF911F910F91FF90EF900895009721F453
S11322808091D8079091D9070FB6F8940F92FC016A
S113229023A5223019F413A681E001C080E00F9039
S11322A00FBE0895FC01738362839187808746176C
S11322B0570790F0421B530B84859585481759079F
S11322C0E0F4BF016E5F7F4F8091E0079091E107DA
S11322D00E94930280E008954217530718F462178E
S11322E0730768F4BF016E5F7F4F8091E20790919E
S11322F0E3070E94930280E0089581E0089581E05D
S113230008950FB6F8940F928091DE079091DF073D
S1132310892BE9F48DEE97E00E94600284EE97E049
S11323200E9460028DEE97E09093E3078093E207AA
S113233084EE97E09093E1078093E00740E065E046
S11323408AE00E9474059093DF078093DE070F9064
S11323500FBE0895EF92FF920F93D3DF8091DE07B3
S11323609091DF07892B89F00F2EFCEDEF2EF7E01B
S1132370FF2EF02D03E020E030E045E550E063E778
S113238072E083E091E0C7D801C080E00F91FF9034
S1132390EF9008950F931F93CF93DF9300D01F9274
S11323A01F92CDB7DEB7E091DE07F091DF073097DB
S11323B069F1D90169835B834A839D838C83663089
S11323C0E4F4A9DC823061F420E0A801BE016F5F6F
S11323D07F4F8091DE079091DF070E94A20517C00E
S11323E020E040E050E0BE016F5F7F4F8091DE0748
S11323F09091DF070E94A2050AC020E0AD01BE0152
S11324006F5F7F4FCF010E944F0601C080E00F90A5
S11324100F900F900F900F90DF91CF911F910F911C
S11324200895AF92BF92CF92DF92EF92FF920F93F3
S11324301F93CF93DF936C01C5D97C018091DA0798
S11324409091DB07E816F90608F047C02FC0058015
S1132450F681E02DA080B180C681D7818E010E5F08
S11324601F4FC8010E94C402E889F989CE01199559
S11324708B8982FF1BC08C859D858A0D9B1DA816A8
S1132480B90660F49B838A83D987C887B801809191
S1132490E2079091E3070E94930208C000E010E075
S11324A020E030E0A50160E0CE0174DFE091E207B6
S11324B0F091E30780818111CACF8091E007909168
S11324C0E1079093E3078093E207F093E107E09339
S11324D0E00781E0F601808302C0F6011082F092E9
S11324E0DB07E092DA07C701DF91CF911F910F91CB
S11324F0FF90EF90DF90CF90BF90AF900895089534
S1132500279A2F9A2FEF80E792E021508040904045
S1132510E1F700C000001F9AF5CF279A2F9A2FEFFA
S113252087EA91E6215080409040E1F700C0000026
S11325301F9AF5CF9093D0098093CF090895CF9334
S1132540DF931F921F92CDB7DEB761E070E080E0A9
S113255090E08ADA1A8219820EE912E06FEF7FEFB7
S11325608091D5099091D6090E941007882311F112
S113257047D3882321F08BE792E00E942B2684E640
S113258090E061DA52D3882321F08AE892E00E9435
S11325902B2684E690E057DA94D39A83898320E04B
S11325A040E050E060E070E08091D5099091D60958
S11325B00E94A2056FEF7FEF8091D1099091D2091B
S11325C00E941007882351F28A818F9389818F9307
S11325D01F930F930E94182620E040E050E0BE01B4
S11325E06F5F7F4F8091CD099091CE090E94A20523
S11325F00F900F900F900F90B1CFCF93DF931F9256
S11326001F92CDB7DEB761E070E080E090E02CDA95
S11326101A8219820BEB12E06FEF7FEF8091D509DC
S11326209091D6090E941007882311F1E9D28823DA
S113263021F08BE792E00E942B2684E690E003DAF7
S1132640F4D2882321F08AE892E00E942B2684E6C3
S113265090E0F9D910D39A83898320E040E050E0D8
S113266060E070E08091D5099091D6090E94A2059E
S11326706FEF7FEF8091CB099091CC090E941007F6
S1132680882351F28A818F9389818F931F930F93AB
S11326900E94182620E040E050E0BE016F5F7F4FAB
S11326A08091D3099091D4090E94A2050F900F90B4
S11326B00F900F90B1CFCF93DF9300D000D0CDB760
S11326C0DEB781E0DDD582E090E0BDD980E0D8D5E9
S11326D086E990E0B8D991D581E023D4E5D50E946C
S11326E0801B9F938F9385ED92E09F938F930E941D
S11326F0182607D70E94801B9F938F9388EE92E041
S11327009F938F930E9418268CE098E0DFD5F8D72A
S11327100CE018E01F930F939F938F9381E093E055
S11327209F938F930E941826C801ECD5E9D79F93F5
S11327308F931F930F9385E193E09F938F930E9450
S11327401826A8016AE273E08BE493E0B8D7D8D7DF
S11327509F938F931F930F938AE293E09F938F939A
S11327608BE493E09F938F938CE593E09F938F93F7
S11327700E941826FAD5C4D79F938F9382E993E0D9
S11327809F938F930E9418260FB6F894DEBF0FBE56
S1132790CDBF81E0ABD6B4D79F938F9381EA93E00A
S11327A09F938F930E9418260F900F900F900F9075
S11327B005E010E00F2EF2ECEF2EF3E0FF2EF02DEB
S11327C080E0D9D5D82E9CD79F938F931F930F93D6
S11327D0FF92EF920E9418260F900F900F900F9087
S11327E00F900F9098E0D91609F48FC080E005D4BB
S11327F08FE290E028D90150110911F781C00E949D
S11328009903FDCF20E040E050E060E070E080916B
S1132810D1099091D2090E94A20520E040E050E045
S113282060E070E08091CB099091CC090E94A205F0
S113283020E040E050E060E070E08091D7099091A2
S1132840D8090E94A20580E49EE7FDD84FEF5FEF10
S1132850BE016D5F7F4F8091CD099091CE090E949A
S113286087064FEF5FEFBE016F5F7F4F8091D30903
S11328709091D4090E9487064FEF5FEFBE016B5F12
S11328807F4F8091D9099091DA090E9487068C8143
S11328908F938B818F939F928F920E9418268A81A7
S11328A08F9389818F93BF92AF920E9418268E8155
S11328B08F938D818F93DF92CF920E941826F80117
S11328C06182708289819A81928383838B819C81C6
S11328D0948385838D819E819683878383E09FD3B0
S11328E0B80180E06BD50CD79F938F93FF92EF9242
S11328F00E9418260FB6F894DEBF0FBECDBF82CF5C
S113290081E06CD380E034D37ACF81E058D31A824B
S113291019821C821B821E821D820F2EF2EE8F2EC4
S1132920F3E09F2EF02D0F2EFEEFAF2EF3E0BF2E1F
S1132930F02D0F2EF7E1CF2EF4E0DF2EF02D06EF71
S113294017E00F2EF6E06F2EF02D6894772471F8BF
S11329500F2EFBE2EF2EF4E0FF2EF02D53CF61E0BB
S113296070E080E090E080D8C0E4D4E06FEF7FEFC7
S11329708091D7099091D8090E9410078823B1F358
S11329800E94D71C8CE390E05ED88091D0098F938D
S11329908091CF098F93DF93CF930E94182620E074
S11329A040E050E06FEC79E08091D9099091DA0928
S11329B00E94A2050F900F900F900F90D7CF84E143
S11329C0A8D081E021D41092D0091092CF096AE9ED
S11329D072E183E0BED7FCD081110DC0F9D01F9203
S11329E08F9385E594E09F938F930E9418260F9010
S11329F00F900F900F900895EF92FF920F93809194
S1132A00D1099091D209892B39F481E00E943706CB
S1132A109093D2098093D1098091CB099091CC09EC
S1132A20892B39F481E00E9437069093CC09809376
S1132A30CB098091D7099091D809892B39F481E089
S1132A400E9437069093D8098093D7098091D509BD
S1132A509091D609892B39F481E00E94370690932E
S1132A60D6098093D50940E062E081E00E947405B4
S1132A709093CE098093CD0940E062E081E00E940A
S1132A8074059093D4098093D30940E062E081E017
S1132A900E9474059093DA098093D909E12CF12CF2
S1132AA003E020E030E040EC50E06DE774E08FE9B3
S1132AB092E10E948B0A20E030E040EC50E066E8AE
S1132AC074E08DEF92E10E948B0A20E030E040EC4C
S1132AD050E06EE874E08FEA94E10E948B0A02E011
S1132AE020E030E040EC50E066E974E08BE593E1EF
S1132AF00E948B0A0F91FF90EF90089580E00E944E
S1132B00A32078945CDF0E94280276DF0E94A90B40
S1132B10FFCFEBEDF9E021E03CE13183208324E0B9
S1132B203CE1338322832FE03CE13583248323E19A
S1132B303CE13783268329E13CE13187208725E284
S1132B403CE1338722872AE23CE13587248726E368
S1132B503CE13787268726E13CE1318B208B2BE350
S1132B603CE1338B228B28E43CE1358B248B682FAA
S1132B70CF0152C108956530F1F4FA0180818F7359
S1132B8090E0982F88272181822B909309028093CB
S1132B9008028281F0E48F9FC0011124FA0123818D
S1132BA026952695822B909307028093060281E056
S1132BB0809370080895643051F080E090E490931D
S1132BC007028093060290930902809308020895F5
S1132BD00F931F930BEB15E120E034E244EF50E038
S1132BE060E087E20E94DD20909372088093710870
S1132BF021E0892B09F020E0822F1F910F91089585
S1132C008091710890917208009759F040E060E05B
S1132C1070E00E942E21843031F41092700880E01C
S1132C20089582E0089583E0089580917108909159
S1132C307208009739F064E00E947A21853021F00F
S1132C4083E0089582E0089580E008956091080289
S1132C507091090280E090E00E94842320E030E03B
S1132C6048EC52E40E94122420E038EF4FE756E487
S1132C700C94EB220895EADF20E030E040E251E4D6
S1132C800E9412240E945823CB01089560910602E9
S1132C907091070280E090E00E94842320E030E0FD
S1132CA045E253E40E94122420E038EF4FE756E453
S1132CB00E94EB2220E030E040E252E40C948622B1
S1132CC00895E4DF20E030E040E251E40E94122461
S1132CD00E945323CB010895CF93DF9390E0FC012E
S1132CE0EE0FFF1FE80FF91FEE0FFF1FED58F74F10
S1132CF0238121110AC0EF01E091E309F091E40975
S1132D006A8188819981199512C0DC01AA0FBB1FC1
S1132D10ED01C80FD91FCC0FDD1FCD58D74FE0915F
S1132D20ED09F091EE096A81888199811995DF9105
S1132D30CF910895CF93DF9390E0FC01EE0FFF1F36
S1132D40E80FF91FEE0FFF1FED58F74F23812111F4
S1132D500AC0EF01E091ED09F091EE096A818881E2
S1132D609981199512C0DC01AA0FBB1FED01C80F90
S1132D70D91FCC0FDD1FCD58D74FE091E309F09157
S1132D80E4096A81888199811995DF91CF91089529
S1132D908FE994E00E942B260F2EFBEDCF2EF9E055
S1132DA0DF2EF02D04E0C3E7D8E010E08C81813001
S1132DB069F0E8F0823039F5D6011C96ED91FC916A
S1132DC01D976A818881998119951DC08D818F5FB6
S1132DD08A3010F48D8317C01D82D6011C96ED91A4
S1132DE0FC911D976A818881998119950CC08D8108
S1132DF0882331F0812F9EDF8D8181508D8303C024
S1132E000C83812F69DF1F5F2696143079F685E0E5
S1132E1090E00E94230DC7CFCF92DF92EF92FF92F2
S1132E200F931F93CF93DF93062F0F2EFBEDEF2EFF
S1132E30F9E0FF2EF02DD7011896ED91FC9119972A
S1132E4066E087E290E01995C3E7D8E00F2EF8E238
S1132E50CF2ED12CF02DD982C88286E08A831B82A2
S1132E6014E01C8380E038DFD7011896ED91FC91C3
S1132E70199767E087E290E01995DF82CE8287E0B8
S1132E80888719861A8781E027DFD7011896ED9184
S1132E90FC91199765E083E390E01995D7011896A2
S1132EA0ED91FC91199761E084E390E0199584E336
S1132EB090E09D878C8785E08E871F86188B82E043
S1132EC00BDFD7011896ED91FC91199764E081E02E
S1132ED091E01995D7011896ED91FC91199761E04D
S1132EE082E091E0199582E091E09B8B8A8B1C8BA8
S1132EF01D8A1E8B83E0F0DEE12CF12C20E030E013
S1132F0040EC50E066EB74E088EC96E10E948B0A9A
S1132F10DF91CF911F910F91FF90EF90DF90CF90B1
S1132F2008950F931F93CF93DF93C82FD0E08E01A2
S1132F30000F111FD801AC0FBD1FAA0FBB1FAD5846
S1132F40B74FE091E709F091E80912966C91129756
S1132F508D919C911995C00FD11FCC0FDD1FCD58B9
S1132F60D74F81E08C83DF91CF911F910F9108950A
S1132F700F931F93CF93DF93C82FD0E08E01000FE0
S1132F80111FD801AC0FBD1FAA0FBB1FAD58B74FFF
S1132F90E091E709F091E80912966C9112978D91EE
S1132FA09C911995C00FD11FCC0FDD1FCD58D74F61
S1132FB082E08C83DF91CF911F910F910895282F88
S1132FC030E0F901EE0FFF1FE20FF31FEE0FFF1FBA
S1132FD0ED58F74F93E09483ADCE0895282F30E059
S1132FE0F901EE0FFF1FE20FF31FEE0FFF1FED5865
S1132FF0F74F94E0948370CE089590E0FC01EE0FB7
S1133000FF1FDF01A80FB91FAA0FBB1FAD58B74F91
S113301024E015962C931597FD011482089590E0F1
S1133020FC01EE0FFF1FDF01A80FB91FAA0FBB1F82
S1133030AD58B74F21E015962C931597FD011482D6
S113304008950F931F93CF93DF931F921F92CDB7D1
S1133050DEB78C0119822DC0E091EF08EC3250F4F8
S113306081E08E0F8093EF08F0E0E15EF64F8A81F5
S1133070808302C01092EF088A818A30D1F4409193
S1133080EF0850E0FA01E35EF64F10824150510917
S11330909E012F5F3F4F6FE179E08091F00890919E
S11330A0F1080E943C09898181110E9499031092C0
S11330B0EF08BE016E5F7F4FC801B3D5882361F26C
S11330C00F900F90DF91CF911F910F9108950F935F
S11330D01F93CF93DF938C01EB018091F0089091C3
S11330E0F1080E94FD08B8018BE898E00E94F925D8
S11330F0209779F0EBE8F8E001900020E9F73197A8
S113310080E290E091838083BE018BE898E00E9486
S1133110EE25EBE8F8E0DF010D900020E9F71197C8
S11331208DE09AE011969C938E9312961C920190D6
S11331300020E9F73197EB58F840AE2F8BE898E080
S1133140AC016A2F8091F2089091F3081AD581118D
S11331500FC028E235E04DE250E069E779E0809164
S1133160F0089091F1080E947E0989E799E002C075
S113317080E090E0DF91CF911F910F910895AF927D
S1133180BF92CF92DF92EF92FF920F931F93CF9350
S1133190DF936C01FC0101900020E9F731977F0176
S11331A0E81AF90A02E417E0C0E0D0E0F80160810F
S11331B07181A701C6010E940026892B49F4FE01F2
S11331C0EE0FFF1FEC0FFD1FEF5BF84F808107C070
S11331D021960D5F1F4FC131D10541F780E1DF9189
S11331E0CF911F910F91FF90EF90DF90CF90BF9000
S11331F0AF9008956CDFC3CF08958091F00890914B
S1133200F1080C94FD0808958F929F92AF92CF928B
S1133210EF920F93CF93C82F41E060E070E088EC09
S113322090E00E94D1089093F1088093F0080F2E4B
S1133230F1E28F2EF8E19F2EF02D6894AA24A6F8CF
S11332406894CC24C6F8E12C00E023E040E051EE81
S113325060E070E08C2FDAD39093F3088093F20847
S1133260E091E309F091E40964E087E091E01995C5
S1133270CF910F91EF90CF90AF909F908F90089542
S1133280882349F0E091ED09F091EE0964E088E0CB
S113329091E019950895E091E309F091E40964E05F
S11332A088E091E01995089560E070E08DED94E078
S11332B00EDFE9E7F9E001900020E9F73197E957DB
S11332C0F94081E0759708F080E00895CF93DF938B
S11332D0EC0160E070E08EEE94E0F9DEE9E7F9E0FD
S11332E001900020E9F7EA58F94039F469E779E0F8
S11332F0CE010E94F92580E002C0188281E0DF91AE
S1133300CF910895FC0101900020E9F79F0121511C
S113331031092817390729F4BC018CE195E06ACFFB
S1133320089589E00895FC0101900020E9F79F01C8
S1133330215131092817390729F4BC018BE295E0A2
S113334059CF089589E00895FC0101900020E9F720
S11333509F01215231092817390729F4BC018AE356
S113336095E048CF089589E0089560E070E089E72A
S113337095E040CF0895E82FF0E0EE0FFF1FE35CE7
S1133380F84F6081718182E895E034DF811112C0C9
S113339028E235E04DE250E069E779E08091F008F9
S11333A09091F1080E947E09882321F089E799E031
S11333B0E6CE089589E799E0E2CE0895CF93DF93AE
S11333C01F92CDB7DEB7DB0111969C911197953111
S11333D008F087C0992381F160E070E0272F30E086
S11333E0462F50E0FD01E40FF51F928192959F70E6
S11333F09A3010F0995C01C0905DF901E65FF64FD8
S113340090832F5F3F4FFD01E40FF51F92819F7062
S1133410492F50E04A30510514F0995C01C0905D89
S1133420F901E65FF64F90837E5F6F5F11969C9182
S11334301197691798F201C070E0E72FF0E0E65F9A
S1133440F64F10824C91811103C08BE895E002C0C5
S11334508DE895E02AE039E03F932F931F924F9334
S11334609F938F9381E995E09F938F938CE499E0E8
S11334709F938F930E945B2660E070E08CE499E058
S1133480B9DE0FB6F894DEBF0FBECDBF8E3051F556
S113349087E08983BE016F5F7F4F89E799E03CD164
S11334A08093F408E981F0E0E758F64FDF010D90CE
S11334B00020E9F71197AE1BBF0BAA2381F0BB27AD
S11334C01197CD010AF40196959587958093F50897
S11334D0AF014F5F5F4F64E186EF98E049D18EE022
S11334E001C084E10F90DF91CF910895813019F0EC
S11334F061EA75E002C061E676E085EA95E07ACE9D
S113350008952F923F924F925F926F927F928F9283
S11335109F92AF92BF92CF92DF92EF92FF920F935E
S11335201F93CF93DF93CDB7DEB7A0970FB6F89470
S1133530DEBF0FBECDBF6AEE75E086EF95E0C7DD56
S11335401EDE8111A3C080E2E1E2F2E0DE01119609
S113355001900D928A95E1F79E012F5F3F4F69011B
S1133560E12CF12C0F2EF2E0AF2EF6E0BF2EF02D61
S11335700CE419E00F2EFBE14F2EF6E05F2EF02D48
S11335800F2EF2E38F2EF6E09F2EF02D0F2EFCE48B
S11335906F2EF6E07F2EF02D3E2C2F2CFF92EF9213
S11335A0BF92AF921F930F930E945B2660E070E07E
S11335B0C8018DDDE4DD0F900F900F900F900F90F8
S11335C00F90811163C032E03E15E8F4F601838167
S11335D08F9382818F9381818F9380818F93FF92C8
S11335E0EF925F924F921F930F930E945B2660E0CD
S11335F070E0C8016CDDC3DD0FB6F894DEBF0FBE0A
S1133600CDBF811143C02F923F929F928F921F93FF
S11336100F930E945B2660E070E0C80158DDAFDDC7
S11336200F900F900F900F900F900F9081112EC05C
S11336302F923F927F926F921F930F930E945B266B
S113364060E070E0C80143DD9ADD0F900F900F90A9
S11336500F900F900F90811119C03FEFE31AF30AF6
S113366084E0C80ED11C98E0E916F10409F094CF67
S113367060E070E084E696E02ADD81DD811106C019
S113368060E070E085E796E022DD79DDA0960FB674
S1133690F894DEBF0FBECDBFDF91CF911F910F9184
S11336A0FF90EF90DF90CF90BF90AF909F908F905E
S11336B07F906F905F904F903F902F900895EF927E
S11336C0FF920F931F93CF93DF93EC018B017A0149
S11336D081E00CDF81110DC0CE0125DE811109C00E
S11336E0C80132DE811105C0C7010CDE811101C0A1
S11336F03CDEDF91CF911F910F91FF90EF900895E1
S113370090E0FC01EE0FFF1F8E0F9F1FFC01EF5B8B
S1133710F84F818192810895DC01009729F1FB0122
S11337202081FC0101900020E9F73197E81BF90B97
S1133730822F90E0E817F907C8F080E008C0880FEE
S1133740382F330F330F830F8053890F2F5FFD0101
S1133750E20FF11D908130ED390F3A3010F49111E0
S1133760EECFFB012083089580E0089580E0089562
S11337700F931F93CF93DF93DC01EA012097E1F1CC
S1133780FA0101900020E9F73197E41BF50B329719
S113379010F532C08D01040F151F30E0AE01420F49
S11337A0531FFA019081913428F09753592F529561
S11337B0507F03C0592F5295507F2C0F3D1FF901A4
S11337C09181913410F0975301C09053950FF801F3
S11337D090838F5F01C080E0282F220F482F50E094
S11337E0FE0101900020E9F73197EC1BFD0B4E1709
S11337F05F0710F48613CECFDF91CF911F910F9105
S11338000895FC0180810895FC01208181E090E00D
S113381002C0880F991F6A95E2F782230895FC017C
S1133820808186230895FC0160830895FC01108241
S11338300895FC01408121E030E002C0220F331FD3
S11338406A95E2F7242B20830895FC012081622BE2
S113385060830895FC01408121E030E002C0220F22
S1133860331F6A95E2F7242720830895FC01208101
S1133870622760830895FC01908121E030E002C05A
S1133880220F331F6A95E2F7209529232083089598
S1133890FC01908160956923608308958091A90952
S11338A0860F8093A9099091AC09913079F028F0A2
S11338B09230A9F0933019F108956F3F09F048C090
S11338C01092A90981E08093AC090895663809F043
S11338D03FC01092A80982E08093AC090895E0915A
S11338E0A80981E08E0F8093A809F0E0EA55F64F0D
S11338F06083823069F583E08093AC0908959091E8
S1133900A80921E0290F2093A809963009F581110F
S11339100EC0E6EAF9E0808190E0982F88272181A3
S1133920820F911D9093AE098093AD0904C010924B
S1133930AE091092AD091092AC09E091AA09F09178
S1133940AB09309729F08091AD099091AE09199592
S113395008958F929F92AF92CF92EF920F93CF934D
S1133960DF93EB010F2EFEE48F2EFCE19F2EF02D52
S11339706894AA24A4F86894CC24C4F8E12C00E048
S113398023E040E855E260E070E040D09093B00955
S11339908093AF09D093AB09C093AA09DF91CF916B
S11339A00F91EF90CF90AF909F908F900895CF9309
S11339B0DF93CDB7DEB729970FB6F894DEBF0FBEFD
S11339C0CDBF89E0E1E4F2E09E012F5F3F4FD901D2
S11339D001900D928A95E1F71092AE091092AD090B
S11339E08091AF099091B009009731F0422F532F85
S11339F069E0C7D080E001C082E029960FB6F89450
S1133A00DEBF0FBECDBFDF91CF9108952F923F92BD
S1133A104F925F926F927F928F929F92AF92CF92CA
S1133A20EF92FF920F931F93CF93DF93CDB7DEB73F
S1133A30F82E2A013B0188E090E09BD78C018F2D62
S1133A4090E0880F991FFC01EF54F64F1183008317
S1133A50FC01E65FFD4F80819181D8018D939C9399
S1133A606C2D70E084E090E06AD71C0161E070E0A6
S1133A7086E090E064D77C014C2DB1012BD5F80190
S1133A80F582E4826A2D70E084E090E058D71C014E
S1133A9061E070E086E090E052D77C014A2DB101EC
S1133AA019D5D8011396FC92EE92129717969C9210
S1133AB08E921697FFB6F894ED91FC911197369774
S1133AC08081826080838D909C90C301B2011CD65A
S1133AD020E030E040E051E4A5D69B01AC0160E079
S1133AE074E284E79BE477D520E030E040E85FE3CC
S1133AF00DD5DED5F40132976083D801ED91FC91A8
S1133B001197359788E98083ED91FC91349786E08D
S1133B108083FFBEC801DF91CF911F910F91FF9069
S1133B20EF90CF90AF909F908F907F906F905F9029
S1133B304F903F902F900895CF93DF93EC01EA814B
S1133B40FB81938182812581981B9223848198171C
S1133B50A1F0938126952923A081B181A20FB11DE3
S1133B606C939F5F258192239383E881F981359734
S1133B7080818062808380E001C082E0DF91CF9108
S1133B800895EF92FF920F931F93CF93DF937C01DD
S1133B90DC011296ED91FC91139793818281981B1D
S1133BA0858198238481891B861798F1662341F1C6
S1133BB0842F952FDC016150462F50E04F5F5F4FFB
S1133BC0480F591FE701EA81FB8193818281258196
S1133BD0981B92238481981779F08C919381269570
S1133BE02923608171818B01020F111DE8018883F3
S1133BF09F5F8581982393831196A417B50711F7C6
S1133C00D701ED91FC91359780818062808380E0BB
S1133C1001C082E0DF91CF911F910F91FF90EF904F
S1133C200895DC011496ED91FC911597938182819E
S1133C30981789F09281858186958923A081B18125
S1133C40A80FB11D8C91DB018C939F5F8581982314
S1133C50928380E0089583E008951F920F920FB637
S1133C600F9211240BB60F922F933F934F935F93B0
S1133C706F937F938F939F93AF93BF93CF93DF9370
S1133C80EF93FF93A091B109B091B209109711F18C
S1133C906091C6001496ED91FC91159793818281F1
S1133CA02581981B92238481981761F0838126953E
S1133CB02823C081D181C20FD11D68838F5F958174
S1133CC0892383831696ED91FC911797309711F011
S1133CD0CD011995FF91EF91DF91CF91BF91AF91F4
S1133CE09F918F917F916F915F914F913F912F9110
S1133CF00F900BBE0F900FBE0F901F9018951F9240
S1133D000F920FB60F9211240BB60F922F938F932D
S1133D109F93AF93BF93EF93FF93E091B109F09119
S1133D20B2093097B9F00280F381E02D938182814A
S1133D309817B1F092818581282F26952923A08197
S1133D40B181A20FB11D2C919F5F8923828320939F
S1133D50C6000BC0E1ECF0E080818F7D808305C05C
S1133D60E1ECF0E080818F7D8083FF91EF91BF9142
S1133D70AF919F918F912F910F900BBE0F900FBE1B
S1133D800F901F9018951F920F920FB60F92112447
S1133D900BB60F922F933F934F935F936F937F9341
S1133DA08F939F93AF93BF93CF93DF93EF93FF933F
S1133DB0A091B309B091B409109711F16091CE00AC
S1133DC01496ED91FC911597938182812581981B1E
S1133DD092238481981761F0838126952823C081DA
S1133DE0D181C20FD11D68838F5F9581892383831D
S1133DF01696ED91FC911797309711F0CD01199516
S1133E00FF91EF91DF91CF91BF91AF919F918F91EE
S1133E107F916F915F914F913F912F910F900BBEC6
S1133E200F900FBE0F901F9018951F920F920FB610
S1133E300F9211240BB60F922F938F939F93AF93EE
S1133E40BF93EF93FF93E091B309F091B4093097D6
S1133E50B9F00280F381E02D938182819817B1F04B
S1133E6092818581282F26952923A081B181A20FD3
S1133E70B11D2C919F5F892382832093CE000BC0B8
S1133E80E9ECF0E080818F7D808305C0E9ECF0E00F
S1133E9080818F7D8083FF91EF91BF91AF919F913E
S1133EA08F912F910F900BBE0F900FBE0F901F900C
S1133EB018951F920F920FB60F9211240BB60F9202
S1133EC02F933F934F935F936F937F938F939F931E
S1133ED0AF93BF93CF93DF93EF93FF93A091B50973
S1133EE0B091B609109711F16091D6001496ED9136
S1133EF0FC911597938182812581981B922384815B
S1133F00981761F0838126952823C081D181C20F3F
S1133F10D11D68838F5F9581892383831696ED91E4
S1133F20FC911797309711F0CD011995FF91EF91FE
S1133F30DF91CF91BF91AF919F918F917F916F91BD
S1133F405F914F913F912F910F900BBE0F900FBE39
S1133F500F901F9018951F920F920FB60F92112475
S1133F600BB60F922F938F939F93AF93BF93EF93BF
S1133F70FF93E091B509F091B6093097B9F002804A
S1133F80F381E02D938182819817B1F0928185812C
S1133F90282F26952923A081B181A20FB11D2C9130
S1133FA09F5F892382832093D6000BC0E1EDF0E06C
S1133FB080818F7D808305C0E1EDF0E080818F7D7D
S1133FC08083FF91EF91BF91AF919F918F912F913A
S1133FD00F900BBE0F900FBE0F901F9018951F925D
S1133FE00F920FB60F9211240BB60F922F933F939B
S1133FF04F935F936F937F938F939F93AF93BF93ED
S1134000CF93DF93EF93FF93A091B709B091B809D1
S1134010109711F1609136011496ED91FC9115976A
S1134020938182812581981B92238481981761F062
S1134030838126952823C081D181C20FD11D688335
S11340408F5F9581892383831696ED91FC91179751
S1134050309711F0CD011995FF91EF91DF91CF9138
S1134060BF91AF919F918F917F916F915F914F918C
S11340703F912F910F900BBE0F900FBE0F901F908A
S113408018951F920F920FB60F9211240BB60F9230
S11340902F938F939F93AF93BF93EF93FF93E091ED
S11340A0B709F091B8093097B9F00280F381E02D97
S11340B0938182819817B1F092818581282F26956A
S11340C02923A081B181A20FB11D2C919F5F892367
S11340D08283209336010BC0E1E3F1E080818F7D80
S11340E0808305C0E1E3F1E080818F7D8083FF91CF
S11340F0EF91BF91AF919F918F912F910F900BBE34
S11341000F900FBE0F901F901895CF93DF931F92BF
S1134110CDB7DEB7BE016F5F7F4F8091B909909133
S1134120BA097FDD8111F6CF898190E00F90DF918C
S1134130CF910895682F8091B9099091BA09FCDC58
S113414080E090E008958F929F92AF92CF92EF9289
S11341500F93812C912C6894AA24A7F86894CC24FA
S1134160C7F8E12C00E023E040E051EE60E070E0AD
S11341704DDC9093BA098093B909E5EFF9E082E147
S113418092E091838083938382830F91EF90CF9009
S1134190AF909F908F9008958091C90981110CC0B0
S11341A08CE08093B8008FEF8093BB0084E0809311
S11341B0BC0081E08093C9090895AF92BF92CF9269
S11341C0DF92EF92FF920F931F93CF93DF93A82E6A
S11341D0B62E69017A0184E090E0CBD3EC01892BFF
S11341E061F1A88281E0B81212C0C701B60120EAC9
S11341F036E841E050E079D3DA01C9014097A109DA
S1134200B109B695A79597958795898311C0C7017C
S1134210B60120E83AE146E050E067D3DA01C9018B
S11342204097A109B109B695A79597958795898374
S11342301B830A838C2F9D2F02C080E090E0DF91C6
S1134240CF911F910F91FF90EF90DF90CF90BF908F
S1134250AF9008958091BC0081700895FF920F93F0
S11342601F93CF93DF930097D1F14A30D0F5F42E0A
S11342708B01EC01EFDF811136C08091BC09909174
S1134280BD09C817D90741F087DF89818093B80039
S1134290D093BD09C093BC0981E08F0D8093BE0902
S11342A08881880F8093BF09FF2089F0F801A0EC72
S11342B0B9E04FEF4F0D642F70E0CB010196B801C8
S11342C0680F791F81918D93E617F707D9F788EF67
S11342D08093200285EA8093BC0084E005C086E0D8
S11342E003C087E001C082E0DF91CF911F910F915D
S11342F0FF9008951F93CF93DF93009729F16B30BC
S113430028F5162FEC01A6DF811122C08091BC098B
S11343109091BD09C817D90741F03EDF8981809388
S1134320B800D093BD09C093BC091093BE0988811D
S1134330880F81608093BF0988EF8093200285EA0B
S11343408093BC0085E005C086E003C087E001C01F
S113435082E0DF91CF911F9108951F920F920FB6C3
S11343600F9211240BB60F922F933F934F935F93A9
S11343706F937F938F939F93AF93BF93EF93FF9329
S1134380E091B9008E2F90E0FC013897E135F105FA
S113439008F075C08827E458FF4F8F4FC8C21092A9
S11343A0BB09E091BB098091BE09E81770F481E074
S11343B08E0F8093BB09F0E0E154F64F8081809327
S11343C0BB0085E88093BC0072C084E98093BC0084
S11343D08091BC099091BD09DC011296ED91FC918C
S11343E01397309709F463C020E040E050E064E0A4
S11343F019955DC0E091BB0981E08E0F8093BB09E4
S11344008091BB00F0E0E154F64F80838091B900C5
S1134410803411F41092BB092091BB0930E08091E3
S1134420BE0990E001972817390724F485EC80939E
S1134430BC003DC085E88093BC0039C08091BB00BE
S1134440E091BB09F0E0E154F64F808384E9809366
S1134450BC008091BC099091BD09DC011296ED91DC
S1134460FC911397309719F12091BE094FEB59E055
S113447065E019951CC085EA8093BC0018C0809142
S1134480B9008093200284E08093BC008091BC0931
S11344909091BD09DC011296ED91FC911397309730
S11344A031F020E040E050E0609120021995FF9146
S11344B0EF91BF91AF919F918F917F916F915F9198
S11344C04F913F912F910F900BBE0F900FBE0F9005
S11344D01F901895FC01411101C06CD3842F90E00A
S11344E09C012150310982239323892B09F062D343
S11344F0413808F05FD3128213824483440F415041
S113450045837183608380E090E008955058BB2711
S1134510AA270ED04DC13ED130F043D120F031F462
S11345209F3F11F41EF433C10EF4E095E7FB29C15B
S1134530E92F4FD180F3BA176207730784079507F1
S113454018F071F49EF567C10EF4E0950B2EBA2FA6
S1134550A02D0B01B90190010C01CA01A001112485
S1134560FF27591B99F0593F50F4503E68F11A1631
S1134570F040A22F232F342F4427585FF3CF4695C2
S113458037952795A795F0405395C9F77EF41F16E4
S1134590BA0B620B730B840BBAF09150A1F0FF0FAE
S11345A0BB1F661F771F881FC2F70EC0BA0F621F9A
S11345B0731F841F48F4879577956795B795F7958A
S11345C09E3F08F0B3CF9395880F08F09927EE0F1C
S11345D09795879508950CD0EBC0E3D040F0DAD0DE
S11345E030F021F45F3F19F0CCC0511115C1CFC098
S11345F0F0D098F39923C9F35523B1F3951B550BC8
S1134600BB27AA2762177307840738F09F5F5F4FA1
S1134610220F331F441FAA1FA9F333D00E2E3AF0E2
S1134620E0E830D091505040E695001CCAF729D0FC
S1134630FE2F27D0660F771F881FBB1F261737074B
S11346404807AB07B0E809F0BB0B802DBF01FF277B
S113465093585F4F2AF09E3F510568F092C0DCC02A
S11346605F3FECF3983EDCF3869577956795B795B5
S1134670F7959F5FC9F7880F911D9695879597F9D0
S11346800895E1E0660F771F881FBB1F6217730749
S11346908407BA0720F0621B730B840BBA0BEE1F5E
S11346A088F7E095089504D06894B111B5C00895D1
S11346B098D088F09F5790F0B92F9927B751A0F060
S11346C0D1F0660F771F881F991F1AF0BA95C9F7A2
S11346D012C0B13081F09FD0B1E008959CC0672F23
S11346E0782F8827B85F39F0B93FCCF38695779552
S11346F06795B395D9F73EF490958095709561953B
S11347007F4F8F4F9F4F0895E89409C097FB3EF465
S113471090958095709561957F4F8F4F9F4F99230A
S1134720A9F0F92F96E9BB279395F6958795779588
S11347306795B795F111F8CFFAF4BB0F11F460FF48
S11347401BC06F5F7F4F8F4F9F4F16C0882311F0A0
S113475096E911C0772321F09EE8872F762F05C0B4
S1134760662371F096E8862F70E060E02AF09A954F
S1134770660F771F881FDAF7880F9695879597F944
S1134780089597F99F6780E870E060E008959FEFCF
S113479080EC089500240A941616170618060906D4
S11347A0089500240A9412161306140605060895A3
S11347B0092E0394000C11F4882352F0BB0F40F42B
S11347C0BF2B11F460FF04C06F5F7F4F8F4F9F4F6B
S11347D0089557FD9058440F551F59F05F3F71F0ED
S11347E04795880F97FB991F61F09F3F79F0879554
S11347F00895121613061406551FF2CF4695F1DFDD
S113480008C0161617061806991FF1CF869571056C
S1134810610508940895E894BB2766277727CB01A0
S113482097F908950BD0C4CFB5DF28F0BADF18F09C
S1134830952309F0A6CFABCF1124EECFCADFA0F3A6
S1134840959FD1F3950F50E0551F629FF001729F21
S1134850BB27F00DB11D639FAA27F00DB11DAA1F40
S1134860649F6627B00DA11D661F829F2227B00D8D
S1134870A11D621F739FB00DA11D621F839FA00D18
S1134880611D221F749F3327A00D611D231F849F68
S1134890600D211D822F762F6A2F11249F575040BF
S11348A08AF0E1F088234AF0EE0FFF1FBB1F661F5A
S11348B0771F881F91505040A9F79E3F510570F013
S11348C060CFAACF5F3FECF3983EDCF386957795F3
S11348D06795B795F795E7959F5FC1F7FE2B880F0E
S11348E0911D9695879597F90895A1E21A2EAA1B12
S11348F0BB1BFD010DC0AA1FBB1FEE1FFF1FA2178C
S1134900B307E407F50720F0A21BB30BE40BF50B88
S1134910661F771F881F991F1A9469F76095709511
S1134920809590959B01AC01BD01CF010895EE0FD8
S1134930FF1F881F8BBF0790F691E02D19940F93EA
S11349401F93CF93DF93869F8001879F100D969FBF
S1134950100D1124C8010DD0EC01009721F0A8011D
S113496060E070E034D1CE01DF91CF911F910F91BF
S113497008950F931F93CF93DF938230910510F422
S113498082E090E0E091F309F091F40920E030E056
S1134990A0E0B0E0309719F1408151810281138188
S11349A048175907C8F08417950769F4109731F030
S11349B012960C93129713961C9327C00093F30935
S11349C01093F40922C02115310519F04217530739
S11349D018F49A01BD01EF01DF01F801DBCF2115C5
S11349E03105F9F0281B390B2430310580F48A8114
S11349F09B816115710521F0FB019383828304C0BF
S1134A009093F4098093F309FE01329644C0FE01A9
S1134A10E20FF31F81939193225031093983288344
S1134A203AC02091F1093091F209232B41F42091ED
S1134A300202309103023093F2092093F10920918C
S1134A400002309101022115310541F42DB73EB722
S1134A504091040250910502241B350BE091F109A9
S1134A60F091F209E217F307A0F42E1B3F0B28176D
S1134A70390778F0AC014E5F5F4F2417350748F0D3
S1134A804E0F5F1F5093F2094093F1098193919364
S1134A9002C0E0E0F0E0CF01DF91CF911F910F91D0
S1134AA00895CF93DF93009709F481C0FC013297F6
S1134AB013821282A091F309B091F409109781F442
S1134AC020813181820F931F2091F1093091F209E5
S1134AD02817390751F5F093F209E093F10967C0FB
S1134AE0ED0120E030E0CE17DF0740F44A815B811E
S1134AF09E0141155105F1F0EA01F5CFD383C2833C
S1134B0040815181840F951FC817D90759F48881B2
S1134B109981840F951F0296918380838A819B815A
S1134B20938382832115310529F4F093F409E093EA
S1134B30F3093DC0E901FB83EA8349915991C40F0C
S1134B40D51FEC17FD0761F480819181840F951FB7
S1134B500296E90199838883828193819B838A8366
S1134B60E0E0F0E012968D919C911397009719F074
S1134B70FD01DC01F7CF8D919C9111979D012E5F72
S1134B803F4F820F931F2091F1093091F2092817AA
S1134B90390769F4309729F41092F4091092F30953
S1134BA002C013821282B093F209A093F109DF913B
S1134BB0CF91089581E090E0F89458C3FB01DC01A3
S1134BC002C001900D9241505040D8F70895DC0185
S1134BD001C06D9341505040E0F70895FB01DC01A2
S1134BE00D900020E9F7119701900D920020E1F754
S1134BF00895FB01DC0101900D920020E1F7089576
S1134C00FB01DC014150504088F08D9181341CF04F
S1134C108B350CF4805E619161341CF06B350CF4BF
S1134C20605E861B611171F3990B0895881BFCCF9C
S1134C30CF93DF93CDB7DEB7AE014A5F5F4FFA0182
S1134C4061917191AF018091F7099091F80961D058
S1134C50DF91CF9108950F931F93CF93DF93E0914A
S1134C60F709F091F809238121FF1BC08C01D0E0E2
S1134C70C0E0F80181918F016091F7097091F80902
S1134C80DB011896ED91FC911997882331F0199561
S1134C90892B79F3DFEFCFEFECCF8AE01995892BDD
S1134CA019F08FEF9FEF02C08D2F9C2FDF91CF91D2
S1134CB01F910F9108950F931F93CF93DF93CDB757
S1134CC0DEB72E970FB6F894DEBF0FBECDBF0E89A8
S1134CD01F8986E08C831A8309838FEF9FE79E8365
S1134CE08D83AE01465E5F4F688D798DCE0101964E
S1134CF010D0EF81F885E00FF11F10822E960FB6C9
S1134D00F894DEBF0FBECDBFDF91CF911F910F91FD
S1134D1008952F923F924F925F926F927F928F925B
S1134D209F92AF92BF92CF92DF92EF92FF920F9336
S1134D301F93CF93DF93CDB7DEB72B970FB6F894BD
S1134D40DEBF0FBECDBF6C017B018A01FC0117825F
S1134D501682838181FFBFC1CE0101963C01F60119
S1134D609381F70193FD859193FF81917F018823BE
S1134D7009F4ADC1853239F493FD859193FF819196
S1134D807F01853221F4B60190E0D6D1E8CF912C91
S1134D90212C312CFFE1F315D8F08B3279F038F463
S1134DA0803279F08332A1F4232D20611DC08D322D
S1134DB061F0803369F4232D216016C0832D826055
S1134DC0382EE32DE4603E2E2AC0F32DF8601DC07A
S1134DD037FC2DC020ED280F2A3040F08E32B9F474
S1134DE036FC75C1232D2064322E19C036FE06C050
S1134DF08AE0989E200D1124922E11C0EAE02E9E86
S1134E00200D1124222EF32DF0623F2E08C08C3683
S1134E1021F4832D8068382E02C0883641F4F701CE
S1134E2093FD859193FF81917F018111B3CF982FD9
S1134E309F7D9554933028F40C5F1F4F9FE3998313
S1134E400DC0833631F0833771F0833509F055C0D6
S1134E5020C0F801808189830E5F1F4F88248394CA
S1134E60912C530112C02801F2E04F0E511CF8019D
S1134E70A080B18036FE03C0692D70E002C06FEFE0
S1134E807FEFC5014ED14C018201F32DFF773F2EF8
S1134E9015C0280122E0420E511CF801A080B18007
S1134EA036FE03C0692D70E002C06FEF7FEFC501CD
S1134EB02DD14C01F32DF0683F2E820133FC19C033
S1134EC0822D90E088169906A0F4B60180E290E065
S1134ED033D12A94F5CFF50137FC859137FE8191C2
S1134EE05F01B60190E028D121102A9421E0821AB2
S1134EF091088114910479F7E1C0843611F0893660
S1134F0039F5F80137FE07C0608171818281938190
S1134F100C5F1F4F08C060817181072E000C880B45
S1134F20990B0E5F1F4FF32DFF763F2E97FF09C09D
S1134F3090958095709561957F4F8F4F9F4FF06846
S1134F403F2E2AE030E0A30133D1882E861844C0D6
S1134F50853731F4232D2F7EB22E2AE030E025C090
S1134F60932D997FB92E8F36C1F018F4883579F0D6
S1134F70AEC0803719F0883721F0A9C0E92FE0616D
S1134F80BE2EB4FE0DC0FB2DF460BF2E09C034FE4E
S1134F900AC0292F2660B22E06C028E030E005C0E2
S1134FA020E130E002C020E132E0F801B7FE07C0A2
S1134FB060817181828193810C5F1F4F06C0608183
S1134FC0718180E090E00E5F1F4FA301F1D0882E25
S1134FD08618FB2DFF773F2E36FE0DC0232D2E7F26
S1134FE0A22E891458F434FE0BC032FC09C0832D60
S1134FF08E7EA82E05C0B82CA32C03C0B82C01C0EB
S1135000B92CA4FE0FC0FE01E80DF11D8081803390
S113501021F49A2D997EA92E09C0A2FE06C0B3944C
S1135020B39404C08A2D867809F0B394A3FC10C00D
S1135030A0FE06C0B21480F4280C922C9B180DC05C
S1135040B21458F4B60180E290E076D0B394F8CF6D
S1135050B21418F42B1802C0982C212CA4FE0FC0F3
S1135060B60180E390E068D0A2FE16C0A1FC03C0A4
S113507088E790E002C088E590E0B6010CC08A2D74
S1135080867851F0A1FE02C08BE201C080E2A7FC49
S11350908DE2B60190E050D0891430F4B60180E37B
S11350A090E04AD09A94F8CF8A94F301E80DF11D68
S11350B08081B60190E040D08110F6CF222009F41F
S11350C04ECEB60180E290E037D02A94F7CFF601B5
S11350D08681978102C08FEF9FEF2B960FB6F894CD
S11350E0DEBF0FBECDBFDF91CF911F910F91FF9017
S11350F0EF90DF90CF90BF90AF909F908F907F9074
S11351006F905F904F903F902F900895FC01059011
S1135110615070400110D8F7809590958E0F9F1FB5
S11351200895FC016150704001900110D8F78095FA
S113513090958E0F9F1F08950F931F93CF93DF9326
S1135140FB01238121FD03C08FEF9FEF2CC022FFC1
S113515016C046815781248135814217530744F490
S1135160A081B1819D012F5F3F4F318320838C93B8
S1135170268137812F5F3F4F3783268314C08B01ED
S1135180EC01FB010084F185E02D1995892BE1F6F2
S1135190D80116968D919C911797019617969C931A
S11351A08E931697CE01DF91CF911F910F910895A1
S11351B0FA01AA27283051F1203181F1E8946F9344
S11351C06E7F6E5F7F4F8F4F9F4FAF4FB1E03ED0EA
S11351D0B4E03CD0670F781F891F9A1FA11D680F88
S11351E0791F8A1F911DA11D6A0F711D811D911DBB
S11351F0A11D20D009F468943F912AE0269F112430
S11352003019305D3193DEF6CF010895462F477093
S1135210405D4193B3E00FD0C9F7F6CF462F4F70EE
S1135220405D4A3318F0495D31FD4052419302D04C
S1135230A9F7EACFB4E0A6959795879577956795F2
S1135240BA95C9F700976105710508959B01AC01F2
S11352500A2E06945795479537952795BA95C9F719
S1135260620F731F841F951FA01D0895F894FFCF2C
S11352700000FB09200000400040C600CE00D6001C
S1135280360100000003000000009A208520000081
S1135290F8A027BE33E034C1332042C43360E5AE06
S11352A033A0F2B133E0FFB433200DB833601ABB3E
S11352B033FF0186000000000079FF0179A000009F
S11352C00000E6FF0179000000000086FF0187006E
S11352D00000000078FF018800000000000049443D
S11352E04C4500546D72205376630077616B6520E2
S11352F07570206661696C65640064617461207016
S11353006F6C6C696E67206661696C6564005465D6
S11353106D706572617475726520746F2071756546
S113532075652069733A2025640A0048756D6964BF
S113533069747920746F2071756575652069733A95
S11353402025640A00466163746F7279526573653F
S113535074203E25733C0A00436F6E66696775725C
S11353606520746F204555383638203E25733C0A35
S113537000476574204857455549203E25733C3AFB
S11353802025730A00536574204465764555493ACF
S1135390202573203E25733C0A003737613632647A
S11353A03336313831636464623233626264366541
S11353B03135653564646231396600643466613957
S11353C06564633565666537373233005365742029
S11353D04F544141204964656E7469747920617049
S11353E0704555493A2573206170704B45593A25EB
S11353F073206465764555493A2573203E25733CF0
S11354000A0053617665206D6163203E25733C0A72
S11354100053657420416461707469766520446149
S1135420746120526174653A204F4E203E25733CCE
S11354300A004A6F696E204E6574776F726B205450
S1135440726965734C6566743A2564203E25733C25
S11354500A0054656D7065726174757265206672B8
S11354606F6D2071756575653A2025640A0048756D
S11354706D69646974792066726F6D2071756575E4
S1135480653A2025640A00434F322066726F6D200E
S113549071756575653A2025640A0055706C6F61F5
S11354A064204D657373616765203E25733C0A0073
S11354B0436F3220746F2071756575652069733A86
S11354C02025640A006869683832313043726561A6
S11354D0746528292072657475726E733A20256488
S11354E020205765206E65656420300A0054656D80
S11354F0705461736B0048756D5461736B00436F36
S1135500325461736B004C6F52615461736B004889
S1135510414C206C6564207461736B2073746172F8
S113552074656421210048414C5F4C454400737903
S113553073207265736574006D61632070617573A7
S113554065006D616320726573756D6500737973B1
S113555020666163746F72795245534554007379C0
S11355607320676574206877657569006D616320D1
S11355706765742067776E62006D6163207365747C
S1135580206C696E6B63686B202564006D61632019
S113559073657420646576657569006D6163207355
S11355A0657420617070657569006D616320736551
S11355B074206170706B6579006D6163207365742C
S11355C0206E776B736B6579006D6163207365740E
S11355D020617070736B6579006D6163207365740D
S11355E02064657661646472006D61632073617622
S11355F065006D6163206A6F696E00756E636E6627
S1135600006D616320747820257320256420257340
S1135610006F6666006D6163207365742061647257
S1135620006D61632067657420616472006D61635D
S113563020736574206472202564006D61632067A3
S11356406574206472006D616320736574207278E0
S113565064656C617931202564003320383639352E
S11356603235303030006D61632073657420727898
S113567032006D616320736574206368206463790C
S1135680636C6520256420373939006D61632073AC
S11356906574206368206672657120256420256C1A
S11356A075006D6163207365742063682064727291
S11356B0616E676520256420302037006D616320AA
S11356C07365742063682073746174757320256432
S11356D0206F6E006D61632073657420707772694A
S11356E064782031006D6163207365742072657481
S11356F0782037006F74616100616270004B455916
S1135700535F4E4F545F494E4954004E4F5F4652CB
S113571045455F43480053494C454E540042555358
S113572059004D41435F5041555345440044454E53
S113573049454400414343455054454400494E566D
S1135740414C49445F504152414D004E4F545F4AD1
S11357504F494E454400494E56414C49445F4441EB
S113576054415F4C454E004652414D455F434F55B1
S11357704E5445525F4552525F52454A4F494E5F1F
S11357804E4545444544004D41435F54585F4F4B9B
S1135790004D41435F52585F4F4B004D41435F45BD
S11357A052524F5200554E4B4E4F574E008406896D
S11357B006002807012F07028D06039B0604A60690
S11357C005AD0606B20607BD0608C40609CD060ADD
S11357D0DB060BE6060CF7060D17070E21070F2B49
S10757E0071035076E
S9030000FC
